:100000000C94EC010C9433020C9433020C943302E4
:100010000C9433020C9433020C9433020C9433028C
:100020000C9433020C9433020C94661C0C94391D0E
:100030000C947B130C9433020C9433020C94330213
:100040000C9433020C9433020C9433020C9433025C
:100050000C9433020C94DC130C9433020C94330292
:100060000C9433020C9433020C9433020C9433023C
:100070000C9433020C9433020C9433020C9433022C
:100080000C9433020C9433020C9433020C9433021C
:100090000C9433020C9433020C9433020C9433020C
:1000A0000C9433020C9433020C943302200023008E
:1000B00026007C001F002200250027001E002100D2
:1000C00024007D0001000100010001000100010089
:1000D0000100010001000100010001000100010018
:1000E0000100010001000100010001000100010008
:1000F00001000100010001000100010001000100F8
:1001000001000100010001000100010001000100E7
:1001100001000100010001000100010001000100D7
:1001200001000100010001000100010001000100C7
:1001300001000100010001000100010001000100B7
:1001400001000100010001000100010001000100A7
:100150000100010001000100010001000100010097
:100160000100010001000100010001000100010087
:100170000100010001000100010001000100010077
:100180000100010001000100010001000100010067
:100190000100010001000100010001000100010057
:1001A0000100010001000100010001000100010047
:1001B0000100010001000100010001000100010037
:1001C0000100010001000100010001000100010027
:1001D0000100010001000100010001000100010017
:1001E0000100010001000100010001000100010007
:1001F00001000100010001000100010001000100F7
:1002000001000100010001000100010001000100E6
:1002100001000100010001000100010001000100D6
:1002200001000100010001000100010012036B0048
:100230006500790062006F006100720064000000D8
:10024000160371006D006B006200750069006C00A0
:1002500064006500720000000403090409026D00D7
:10026000040100A0FA0904000001030101000921B2
:10027000110100012240000705810308000A09045A
:1002800001000103010200092111010001224D00BA
:100290000705820308000A090402000103000000A8
:1002A0000921110100012236000705830308000A15
:1002B00009040300010300000009211101000122CB
:1002C000390007058403200001120110010000001D
:1002D00008EDFE606001000102000105010906A1B0
:1002E00001050719E029E715002501950875018129
:1002F00002050819012905950575019102950175F9
:100300000391010507190029F71500250195F875D6
:10031000018102C005010980A101850216010026A4
:1003200003001A81002A8300751095018100C00521
:100330000C0901A1018503160100269C021A010087
:100340002A9C02751095018100C005010902A101D6
:100350000901A100050919012905150025019505C7
:10036000750181029501750381010501093009318B
:100370001581257F95027508810609381581257F2D
:10038000950175088106050C0A38021581257F95AF
:100390000175088106C0C005010906A101050719FC
:1003A000E029E71500250195087501810295017581
:1003B0000881010508190129059505750191029526
:1003C00001750391010507190029FF150026FF009B
:1003D000950675088100C00011241FBECFEFDAE03A
:1003E000DEBFCDBF04B603FE27C08091030290910B
:1003F0000402A0910502B09106028730904BA740FD
:10040000B04BD1F410920302109204021092050234
:100410001092060214BE84B7877F84BF0FB6F8948B
:10042000A8958091600088618093600010926000C0
:100430000FBEE0E0F8E3099511E0A0E0B1E0ECE4E4
:10044000F1E402C005900D92AE32B107D9F722E077
:10045000AEE2B1E001C01D92A330B207E1F70E9405
:10046000BC190C9478200C94000090E080E0089572
:100470000895089581E00895089581E008950C9409
:100480003A020E94CF0B2FEF84E39CE02150804082
:100490009040E1F700C000000C94FF13EF92FF9230
:1004A0000F931F93CF93DF938C01FC01E080F180C9
:1004B00080915301811140C082818823C1F1C7011D
:1004C0000E945211C82F682FC7010E94FD10B7016A
:1004D0008C2F0E948603EC01B8010E943F02882302
:1004E00009F44BC0B801CE010E948F05882309F49E
:1004F00044C0C531F0E7DF0720F5C23080E7D807F8
:1005000008F04DC0C115E0E7DE0791F1C130D047DA
:10051000E1F181E08093300180933101C801DF91E6
:10052000CF911F910F91FF90EF900C943D02C70166
:100530000E942A11C82FCBCFC7010E945211B701C8
:10054000C8CFCC3380E7D80709F49BC0CD33D04760
:1005500001F7F8018281882309F4BAC010923101B1
:100560000E94AB1390932F0180932E0180E296C0DE
:10057000F801828181110E94410280E0DF91CF91D8
:100580001F910F91FF90EF900895F80182818823C9
:10059000A1F38091C30181608093C301EECFF80184
:1005A0008281882309F4BACF0E940D13811102C001
:1005B0000E94F3120E942A1390E09093F501809319
:1005C000F401FE01E350F0478091F4018160E231D3
:1005D000F10538F4E658FF4D0C9428208091F40181
:1005E00082608093F4018091F4010E942E130E9496
:1005F000CF0BC3CF8091F4018460F3CF8091F401DD
:100600008860EFCF8091F4018061EBCF8091F4019D
:100610008062E7CF8091F4018064E3CF8091F401A0
:100620008068DFCF8091F4018C60DBCF8091F40192
:100630008E7FD7CF8091F4018D7FD3CF8091F4014D
:100640008B7FCFCF8091F401877FCBCF8091F40156
:100650008F7EC7CF8091F4018F7DC3CF8091F4014D
:100660008F7BBFCF8091F4018F77BBCF8091F40156
:10067000837FB7CF9091F401892F97FB87F980583A
:10068000B0CFF8018281882361F0109230010E947E
:10069000AB1390932F0180932E0182E00E943409C6
:1006A0006CCF8091300181110FC080912E0190910B
:1006B0002F010E94B713883C910530F486E20E9416
:1006C000090886E20E94E50882E00E943B0955CFB6
:1006D0008091310181110FC080912E0190912F01E5
:1006E0000E94B713883C910530F487E20E94090804
:1006F00087E20E94E50880E2E8CF0C94DE050C94C6
:10070000E0050C943C020C9481030895E72FF0E07F
:1007100093E0899FE00DF11D1124EE0FFF1FEE0FF6
:10072000FF1FE60FF11DEE0FFF1FE455FF4F8591F0
:1007300094910895FC01EE0FFF1FE45DFD4F85913C
:10074000949108950E9486030E9413059C018115CF
:1007500040E4940708F097C0211580E3380708F0BB
:10076000FAC0203E310508F074C0203C310508F085
:10077000E5C0283A310588F4253A310508F0E2C091
:100780002130310509F477C0C9010497813A9105F8
:1007900008F471C030E020E06EC0C901885A9109A8
:1007A0004597C0F7283A310509F4FEC0293A3105CA
:1007B00009F4FDC02A3A310509F4FCC02B3A310591
:1007C00009F4FBC02C3A310509F4FAC02B3B310582
:1007D00009F4F9C02C3B310509F4F8C02D3A310574
:1007E00009F4F7C0203B310509F4F6C02E3A310573
:1007F00009F4F5C02F3A310509F4F4C0213B310565
:1008000009F4F3C0223B310509F4F2C0233B310562
:1008100009F4F1C0243B310509F4F0C0253B310552
:1008200009F4EFC0263B310509F4EEC0273B310542
:1008300009F4EDC0283B310509F4ECC0293B310532
:1008400009F4EBC02A3B310509F4EAC020E034E4A6
:1008500012C0211590E2390780F42F3F310509F0CD
:1008600050F4283E310538F0C901805F91093065A8
:10087000409708F08FCFC9010895C9019F700E9469
:100880009A039C01F8CF8115944508F041C02115C9
:1008900083E5380708F06AC0211592E5390738F575
:1008A000211541E5340708F05CC0211580E53807C3
:1008B00008F454C0C90134E0969587953A95E1F75C
:1008C0008370422F46954695437090E2499FA00160
:1008D0001124582B822F837021E030E002C0220FB8
:1008E000331F8A95E2F7242B352B3C68C4CFC9010E
:1008F0008370992741E050E002C0440F551F8A954C
:10090000E2F72695269580E2289F90011124EBCFEF
:10091000211596E5390748F4922F8827211535458A
:10092000C8F59C01246F306AA6CFC90190563F706C
:100930008115904108F02ECF30629DCFC901805CB7
:1009400091099DCF253A310549F1263A310549F5FE
:1009500022E830E490CF3327306C8DCF3F70306A7F
:100960008ACF322F2227216F306A85CFC901837049
:10097000992741E050E002C0440F551F8A95E2F7E5
:100980002695269580E2289F90011124242B352B53
:100990003A6871CF88279F719C01CECF21E830E45F
:1009A0006ACF23E830E467CF22EE34E464CF29EE47
:1009B00034E461CF2AEE34E45ECF25EB34E45BCF40
:1009C00026EB34E458CF23EB34E455CF24EB34E466
:1009D00052CF27EB34E44FCF2CEC34E44CCF2DEC4A
:1009E00034E449CF23E835E446CF2AE835E443CF61
:1009F00022E935E440CF24E935E43DCF21E236E475
:100A00003ACF23E236E437CF24E236E434CF25E28E
:100A100036E431CF26E236E42ECF27E236E42BCF80
:100A20002AE236E428CF803E910581F1C8F4813373
:100A3000910509F462C048F48932910509F456C061
:100A40008A32910509F460C0089589339105B9F09F
:100A500082389105A1F08533910509F440C00895CD
:100A6000863E910561F138F4823E9105B1F0833EF6
:100A70009105E1F00895873E910551F10895209187
:100A8000F4012370D9F080EE90E008952091F401F4
:100A900020FF14C089E390E008952091F40122FF23
:100AA0000DC024FD09C083EE90E008952091F4016B
:100AB00022FD31C024FF02C090E080E00895209123
:100AC000F40123FFFBCF24FDF7CF87EE90E00895DC
:100AD0002091F40123FFEECF86EE90E0089520915F
:100AE000F40125FFEBCF89E290E008952091F40115
:100AF00025FFE4CF85E390E008952091F40126FFDF
:100B0000DDCF8AE290E008952091F40126FFD6CF50
:100B100081E390E0089582EE90E0089508950F93A8
:100B20001F93CF938C01FB018281811106C0C1E02C
:100B30008C2FCF911F910F910895C0913F01C1114A
:100B400025C00531104799F70E948E0581E08093FA
:100B50003F010E94AB1390933E0180933D011092A0
:100B6000320110923401109233011092360110922A
:100B70003501109238011092370110923A0110920B
:100B8000390110923C0110923B01D2CF80913D017E
:100B900090913E010E94B713883C910540F68091E8
:100BA0003201E82FF0E0EE0FFF1FED5CFE4F1183E6
:100BB00000838F5F80933201C0E0BACF0C9438027B
:100BC0000C943902CF93DF9385B7806885BF85B7D2
:100BD000806885BFA7E1B1E04AE151E0C1E0D0E023
:100BE0008D91E82FE295EF70F0E061A18F709E018A
:100BF00001C0220F8A95EAF7922F9095962391A330
:100C000082A1822B82A34A175B0751F7A3E1B1E0CF
:100C100047E151E0C1E0D0E08D91E82FE295EF701F
:100C2000F0E061A18F709E0101C0220F8A95EAF762
:100C3000922F9095962391A382A1822B82A34A178B
:100C40005B0751F71092430110924001109244014A
:100C5000109241011092450110924201DF91CF9113
:100C60000C947D034F925F926F927F928F929F922E
:100C7000AF92BF92CF92DF92EF92FF920F931F93AA
:100C8000CF93DF9380E4482E81E0582E97E1C92E60
:100C900091E0D92E23E4E22E21E0F22E01E010E0D3
:100CA000BB24B394E20199902E01DE011E92F6015D
:100CB00081916F01E82FE295EF70F0E091A18F70C4
:100CC000980101C0220F8A95EAF7892F822B81A310
:100CD00082A1822E8094882182A380EA8A95F1F7EE
:100CE00063E171E090E080E0EB01A990BE014A2D44
:100CF00042954F7050E0EA0168A07C905A2D5F70D9
:100D0000E80102C0CC0FDD1F5A95E2F7AE01462183
:100D100009F04FC0402F082E01C0440F0A94EAF793
:100D200047294C93019684309105F1F681A18821E1
:100D300081A382A1282B22A38C91981641F0B09216
:100D400046010E94AB139093480180934701E4143D
:100D5000F50409F0A7CF809146018823B1F0809176
:100D60004701909148010E94B713069770F0809157
:100D7000400180934301809141018093440180911F
:100D8000420180934501109246010E947F0381E059
:100D9000DF91CF911F910F91FF90EF90DF90CF9057
:100DA000BF90AF909F908F907F906F905F904F908B
:100DB000089540E0B5CFE82FF0E0ED5BFE4F808175
:100DC0000895089590934E0180934D010895E09108
:100DD0004D01F0914E01309721F00190F081E02D0E
:100DE000099480E00895E0914D01F0914E01309713
:100DF00021F00280F381E02D09940895E0914D01E6
:100E0000F0914E01309721F00480F581E02D099496
:100E1000089520914B0130914C012817390771F04A
:100E200090934C0180934B01E0914D01F0914E0164
:100E3000309721F00680F781E02D099408952091E4
:100E4000490130914A012817390771F090934A01FE
:100E500080934901E0914D01F0914E01309721F0CE
:100E60000084F185E02D0994089508950C943507C8
:100E70000E94A2130E94E2050C946414BF92CF92C8
:100E8000DF92EF92FF920F931F93CF93DF9300D0E7
:100E900000D00F92CDB7DEB70E94320680E5C82E93
:100EA00081E0D82E10E000E0E02E802F0E94DB06CB
:100EB000B82EF601F1906F01F81609F45BC080912D
:100EC000C30181FD0E94E10630E020E0FB244F2DAC
:100ED00050E0922FBA01022E02C0759567950A94D0
:100EE000E2F760FF41C02983EA8221E030E0790126
:100EF00002C0EE0CFF1C9A95E2F72B2D30E02E215C
:100F00003F2181E0232B09F480E08B830E94AB1307
:100F10008160782F9D838C8349815A816B818D817B
:100F20000E94E007F801E05BFE4F80818E25808300
:100F30000E9411170E94E70690914F01891789F1CD
:100F40000E94E70680934F010F900F900F900F9033
:100F50000F90DF91CF911F910F91FF90EF90DF9055
:100F6000CF90BF900C9483032F5F3F4F2430310507
:100F700009F0AFCF0F5F1F4F0330110509F094CF79
:100F80008FEF89838A831B820E94AB138160782F45
:100F90009D838C8349815A816B818D810E94E007FA
:100FA000C7CF0F900F900F900F900F90DF91CF91C0
:100FB0001F910F91FF90EF90DF90CF90BF90089519
:100FC000CF93DF93CDB7DEB72B970FB6F894DEBF84
:100FD0000FBECDBF4F83588769877A878B871E8264
:100FE00085E0FE013796DE01119601900D928A95FB
:100FF000E1F749815A816B817C818D819E812B969D
:101000000FB6F894DEBF0FBECDBFDF91CF910C9429
:10101000570E882309F4D8C0823871F40E94E7067D
:1010200081FDD2C089E30E94FA110E94C41289E3B3
:101030000E9437120C94C412833859F40E94E706B8
:1010400080FDC2C083E50E94FA110E94C41283E5AC
:10105000EFCF843859F40E94E70682FDB5C087E4DB
:101060000E94FA110E94C41287E4E2CF9CEF980F0D
:10107000913A18F40E94FA11DDCF90E2980F98305F
:1010800050F4877091E001C0990F8A95EAF7892F93
:101090000E947B12CFCF9BE5980F933070F4853A76
:1010A00031F0863A39F083E890E00C94090781E842
:1010B00090E0FBCF82E890E0F8CF98E5980F95316B
:1010C00008F082C0883A09F440C0893A09F440C067
:1010D0008A3A09F440C08B3A09F440C08C3A09F4CA
:1010E00040C08B3B09F440C08C3B09F440C08D3AB2
:1010F00009F440C0803B09F440C08E3A09F440C076
:101100008F3A09F440C0813B09F440C0823B09F4A6
:1011100040C0833B09F440C0843B09F440C0853B98
:1011200009F440C0863B09F440C0873B09F440C045
:10113000883B09F440C0893B09F440C08A3B09F46C
:1011400040C090E080E00C941F0782EE90E0FBCF5F
:1011500089EE90E0F8CF8AEE90E0F5CF85EB90E055
:10116000F2CF86EB90E0EFCF83EB90E0ECCF84EB17
:1011700090E0E9CF87EB90E0E6CF8CEC90E0E3CF16
:101180008DEC90E0E0CF83E891E0DDCF8AE891E05C
:10119000DACF82E991E0D7CF84E991E0D4CF81E240
:1011A00092E0D1CF83E292E0CECF84E292E0CBCF47
:1011B00085E292E0C8CF86E292E0C5CF87E292E076
:1011C000C2CF8AE292E0BFCF0895882309F44BC0D2
:1011D000823871F40E94E70681FF45C089E30E94CE
:1011E000FA110E94C41289E30E9437120C94C412AF
:1011F000833859F40E94E70680FF35C083E50E94DA
:10120000FA110E94C41283E5EFCF843859F40E948A
:10121000E70682FF28C087E40E94FA110E94C412E8
:1012200087E4E2CF9CEF980F913AF0F290E2980FAA
:10123000983050F4877091E001C0990F8A95EAF7D1
:10124000892F0E948112D2CF9BE5980F933020F412
:1012500090E080E00C940907885A853120F490E0F2
:1012600080E00C941F070895882321F00E947B12D0
:101270000C94C4120895882321F00E9481120C94CA
:10128000C41208958F929F92AF92BF92DF92EF9215
:10129000FF920F931F93CF93DF9300D000D00F9254
:1012A000CDB7DEB77C016D837983FC0105810295A2
:1012B0000F70128111110E949A120E94F311D82E00
:1012C000882371F01123A1F08D81805E883080F039
:1012D00082E00E94DD110E94F31191E0D82ED92600
:1012E000E981E295EF70F0E0E457FF4D0C9428207F
:1012F000D12CF6CF09810F70F981F07F11F00295A2
:10130000007F1123B1F0002361F08D81805E883071
:1013100018F02D81211109C0802F0E947B120E949C
:10132000C4128D810E94090815C0802F0E948C1262
:10133000F6CF8D810E94E508002361F08D81805EEB
:10134000883018F03D81311129C0802F0E94811210
:101350000E94C412DD2009F4D3C10E94D01180FD87
:10136000CFC1F70112820E94CA110E941510C70155
:101370000E94910B0E94CA110F900F900F900F9036
:101380000F90DF91CF911F910F91FF90EF90DF9021
:10139000BF90AF909F908F900C943710802F0E9439
:1013A0009212D6CF49814F70B42E5981507F50325E
:1013B00019F0B29480EFB8228D81882369F08130D2
:1013C00029F1112369F1002359F0F701858180FF8C
:1013D000A8CF8F70858304C0112361F0011104C070
:1013E0008B2D0E943409B6CF8B2D0130D1F70E948E
:1013F000AE12B0CF011106C00E94B1128B2D0E9417
:101400003B09A8CF013009F4A5CFF6CF112321F075
:10141000063008F09FCFE4CF053008F09BCFEECF29
:10142000002361F38D810E94E50894CF8981869520
:101430008695837069F0813009F08CCF8D81998118
:101440009370111102C090E080E00E941F0782CFCC
:101450008D8199819370111102C090E080E00E940B
:10146000090778CF8D81112329F00E941F160E9451
:10147000061770CF0E948716FACF8981837009F012
:101480005FC0111167CF2D81229526952770220FFD
:10149000220F8D818F7090E0B0E0A0E04C015D01E3
:1014A000022E04C0880C991CAA1CBB1C0A94D2F7FB
:1014B000FD8160E070E0CB01F4FF0FC06FE070E0F1
:1014C00080E090E004C0660F771F881F991F2A955F
:1014D000D2F76095709580959095298126952695EF
:1014E00023702D832230B1F0233019F19B01AC0120
:1014F000282939294A295B2929833A834B835C832C
:101500003D8169817A818B819C813130B1F00E946B
:10151000A20F20CF9B01AC01282939294A295B2938
:1015200029833A834B835C83CA01B9010E94CC0FA3
:1015300011CF0E94A20FC501B4010E94780F0ACFFB
:101540008695112311F089818170882309F402CFD7
:101550002D81229526952770220F220F8D818F7065
:1015600090E0B0E0A0E04C015D01022E04C0880CC8
:10157000991CAA1CBB1C0A94D2F73D8160E070E064
:10158000CB0134FF0FC06FE070E080E090E004C05A
:10159000660F771F881F991F2A95D2F7609570955F
:1015A0008095909549814695469543704D8342308C
:1015B000B1F0433019F19B01AC01282939294A299E
:1015C0005B2929833A834B835C833D8169817A81DE
:1015D0008B819C813130B1F00E94A810BBCE9B0161
:1015E000AC01282939294A295B2929833A834B836D
:1015F0005C83CA01B9010E94D210ACCE0E94A8102F
:10160000C501B4010E947E10A5CE3D81323F09F490
:1016100047C080F4303F79F1313FD9F1832F805EAC
:101620008031D0F0112309F456C001117ACE89819E
:101630008F7133C04D81433FD1F1443F99F711235E
:1016400009F43FC089818F7189830E94151063E07E
:1016500089810E94D4117ECE5D815F705D83898116
:101660008F71112321F00E9415108D81BACE0E9436
:1016700037108D81C4CE112341F0053008F06ACEB9
:1016800089818F710E945C1065CE063008F062CEB1
:10169000F7CF89818F71112339F00E9415105ACE2E
:1016A00089818F711123C9F30E94371053CE112302
:1016B00029F089818F710E9400104CCE0E94F60F94
:1016C00049CE81E00E94DD11023008F443CE82E071
:1016D0000E94DD113FCE0111A5CE89818F71E4CF2B
:1016E00049814F706D81C7010E9435020E94F10E41
:1016F00031CE49814F706D81C7010E9485032ACE8A
:101700000F900F900F900F900F90DF91CF911F913E
:101710000F91FF90EF90DF90BF90AF909F908F90D0
:1017200008950F931F93CF93DF93EC018B819C81DE
:10173000892B29F08881998189238F3F29F4DF91B2
:10174000CF911F910F910895CE010E944E028823E0
:10175000B1F3688179818A810E94A0118C010E9475
:10176000FC100E946D0FB801CE01DF91CF911F9147
:101770000F910C9442090E949A120E94AB120E948F
:101780006D120E94C4120E94F7170E94061790E083
:1017900080E00E94090790E080E00C941F070E94FF
:1017A00089120C94BB0B0E949411282F892F8295CB
:1017B0008F70903C80F48A30B0F4843020F4823012
:1017C00090F480E008958630E1F781E0203E88F0D3
:1017D000213FB9F70EC08C3011F08F3091F793FB99
:1017E000882780F9089581E0203F39F018F4203EE1
:1017F00040F70895243F29F7FCCF0895CF93DF9356
:1018000000D000D00F92CDB7DEB70F900F900F90A1
:101810000F900F90DF91CF910895CF93DF9300D079
:1018200000D000D0CDB7DEB726960FB6F894DEBF55
:101830000FBECDBFDF91CF9108951F93CF93DF935C
:10184000E091540116E0809155018E1304C0DF91A0
:10185000CF911F910895CE2FD0E01E9FF00111244B
:10186000EA5AFE4F40815181628173818481958162
:101870000E940D0CFE013196E770E5CF4091860184
:1018800050918701609188017091890180918A014E
:1018900090918B010C940D0C1F93CF93DF9380914B
:1018A0008B01807FC1F4809188018823A1F0809111
:1018B0005401C0915501609186017091870140915A
:1018C000890150918A01D62FD723DA01A095B095CE
:1018D00016E0C81304C0DF91CF911F91089590E0E6
:1018E0004115510511F0DF3F31F401968770F1CFBA
:1018F0002A0F3B1F17C0189FF001199FF00D1124EC
:10190000EA5AFE4F21812713F0CF20812613EDCF15
:1019100022812111EACF238134812417350740F336
:10192000241B350B283C310500F720918B012F70CB
:10193000206120938B0126E0289FF001299FF00D64
:101940001124E55AFE4F80818F708061808386E884
:1019500091E00E94910BDF91CF911F910C941D0C8F
:101960009F92AF92BF92CF92DF92EF92FF920F932E
:101970001F93CF93DF93CDB7DEB72B970FB6F894B5
:10198000DEBF0FBECDBF8C0185E0F801DE011796EA
:1019900001900D928A95E1F7D8014C9111965C91D6
:1019A00011971296EC9012978091890190918A017B
:1019B000009709F46BC12091860130918701632F54
:1019C00062236F3F09F462C11396CD90DC90909032
:1019D0008801992009F4F8C0C816D90608F43FC058
:1019E000F601E81BF90BCF01FF24F394883C910525
:1019F00008F0F12C86E8A82E81E0B82E80918B01AA
:101A0000982F907FFF2009F4B7C0911180C0FE2C61
:101A100035132AC0241328C0E11026C08F708061BE
:101A200080938B010E943E0CC5010E94910B809116
:101A30008B01D80115968C938F2D2B960FB6F894A9
:101A4000DEBF0FBECDBFDF91CF911F910F91FF90F1
:101A5000EF90DF90CF90BF90AF909F9008958095CA
:101A600090958C0D9D1DC0CFCD2829F0842F852306
:101A70008F3F09F019C180E0B82FB170DB2EE091E3
:101A800054012091550136E080FD1CC0EE20A1F2EA
:101A900080918B01816080938B01F12CCDCF8E2FB3
:101AA00090E03E9FF0011124EA5AFE4F61816513D8
:101AB00006C06081641303C062816E11E7CFFC0130
:101AC0003196E770E213EBCF4F8358878F8198856B
:101AD0000E949411292F22952F70903260F0225F7E
:101AE0002F70223078F49F7051F0F8019581907F2B
:101AF00031F4D12C0AC09F7011F08823D1F3805E9D
:101B00008830B8F3C8010E94910BFD2C95CF351396
:101B100006C0241304C0D801EE2009F47BC04F8313
:101B200058878F8198850E94D30B882309F4B8C009
:101B3000EE2009F4B5C080918B01803270F02091C5
:101B40008601309187013A8329831B82DD82CC8212
:101B50008E83CE0101960E94910B86E0F801A6E8E3
:101B6000B1E001900D928A95E1F70E944C0C0E9421
:101B70003E0CFF24F39460CF911113C07C2DDB86C3
:101B8000CA866E2D8B850E94FE0B86E891E00E942E
:101B9000910B86E0F50111928A95E9F70E943E0CBF
:101BA0004BCF3513BCCF2413BACFE110B8CFD80137
:101BB00015968C93C8010E94910B86E0F501119255
:101BC0008A95E9F7F92C38CFC816D90688F1B601FD
:101BD000681B790BCB01F12C883C910508F047C0BC
:101BE000FE2CEE2009F45CC0351330C024132EC047
:101BF00080918B0180FD21C0982F907FF1F0D8015A
:101C000015968C931597903F39F0982F907F905FA1
:101C10008F70892B15968C93C8010E94910B86E0DA
:101C2000F801A6E8B1E001900D928A95E1F7B6CFF0
:101C3000809590958C0D9D1DCECF86E0F801A6E88D
:101C4000B1E001900D928A95E1F7F6CE4F83588767
:101C50008F8198850E94D30B81117FCF80918B015A
:101C6000816080938B01C8010E94910BE5CE7C2D91
:101C7000DB86CA866E2D8B850E94FE0B86E0E6E829
:101C8000F1E0DF011D928A95E9F788CFEE2041F05F
:101C90004F8358878F8198850E94D30B81115DCF28
:101CA000C8010E94910B65CF81E08E25E5CE1F9380
:101CB000CF93DF93CDB7DEB72C970FB6F894DEBF86
:101CC0000FBECDBF4F83588769877A878B879C87E4
:101CD000CE0107960E94B00C882369F08A859B8507
:101CE000892B39F04F815885842F85238F3F09F048
:101CF00071C016E05FC086E0FE013796DE011196E6
:101D000001900D928A95E1F78A859B85892B89F34D
:101D100088859F8189238F3F61F32091550130E0B1
:101D2000C9010196877099274091540148171906F7
:101D300071F40E94CF0B109255011092540186E06D
:101D4000E6E8F1E0DF011D928A95E9F7D2CF96E04F
:101D5000929FD001939FB00D1124AA5ABE4FFE014D
:101D6000319601900D929A95E1F7809355010E946A
:101D70001D0CBFCF819FC00111248A5A9E4F0E9423
:101D8000B00C8823E9F0E09154011E9FF00111246A
:101D9000EA5AFE4F4081518162817381848195812D
:101DA0000E940D0C8091540190E001968770992754
:101DB0008093540180915401909155018913DACF99
:101DC0002C960FB6F894DEBF0FBECDBFDF91CF913A
:101DD0001F91089569857A858B859C850E940D0CDD
:101DE00088CFEF92FF920F931F93CF93DF938C01D5
:101DF000892B89F0F12CEE24E394E8012196F80177
:101E00008491843709F457C0A0F4823009F43EC0AD
:101E100048F48130D1F0DF91CF911F910F91FF9065
:101E2000EF9008959CEF980F9037A8F70E9409084B
:101E30000AC0853709F44CC09CE7980F903758F7D3
:101E40008F770E94E5088E0116C00E5F1F4FFE01BE
:101E5000849190E2980F983060F48770FE2D01C055
:101E6000FF0F8A95EAF78F2F0E949D120E94C412DD
:101E700002C00E9409088F2D815008F4BECFEFE9FF
:101E8000FFE03197F1F700C00000F6CF0E5F1F4F63
:101E9000FE01849190E2980F983050F48770FE2DE7
:101EA00001C0FF0F8A95EAF78F2F0E94A312DECFA1
:101EB0000E94E508E0CF0E5F1F4FFE01C491C150A4
:101EC000D0F28FE99FE00197F1F700C00000F7CF53
:101ED0000E5F1F4FFE01F490CECF089560939A01DC
:101EE00070939B0180939C0190939D010C94BB0B7C
:101EF000CF93DF9300D000D0CDB7DEB769837A836C
:101F00008B839C8380919A0190919B01A0919C016D
:101F1000B0919D0129813A814B815C81822B932B69
:101F2000A42BB52B80939A0190939B01A0939C01C5
:101F3000B0939D010F900F900F900F90DF91CF9174
:101F40000C94BB0BCF93DF9300D000D0CDB7DEB79E
:101F500069837A838B839C8380919A0190919B0102
:101F6000A0919C01B0919D0129813A814B815C81B6
:101F700082239323A423B52380939A0190939B01FA
:101F8000A0939C01B0939D010F900F900F900F9024
:101F9000DF91CF910C94BB0BCF93DF9300D000D097
:101FA000CDB7DEB769837A838B839C8380919A0156
:101FB00090919B01A0919C01B0919D0129813A8152
:101FC0004B815C8182279327A427B52780939A01B0
:101FD00090939B01A0939C01B0939D010F900F9053
:101FE0000F900F90DF91CF910C94BB0B1092960144
:101FF0001092970110929801109299010C94BB0BCA
:1020000041E050E060E070E004C0440F551F661FDF
:10201000771F8A95D2F7409396015093970160936A
:102020009801709399010C94BB0B282F81E090E0EC
:10203000A0E0B0E004C0880F991FAA1FBB1F2A951B
:10204000D2F740919601509197016091980170915B
:102050009901842B952BA62BB72B809396019093F7
:102060009701A0939801B09399010C94BB0B41E0A8
:1020700050E060E070E004C0440F551F661F771FFA
:102080008A95D2F74095509560957095809196010C
:1020900090919701A0919801B09199018423952383
:1020A000A623B7238093960190939701A09398015C
:1020B000B09399010C94BB0B282F81E090E0A0E035
:1020C000B0E004C0880F991FAA1FBB1F2A95D2F742
:1020D00040919601509197016091980170919901FA
:1020E00084279527A627B727809396019093970179
:1020F000A0939801B09399010C94BB0BCF93DF93FD
:1021000000D000D0CDB7DEB769837A838B839C8300
:102110008091960190919701A0919801B0919901B9
:1021200029813A814B815C81822B932BA42BB52B87
:102130008093960190939701A0939801B093990191
:102140000F900F900F900F90DF91CF910C94BB0BDD
:10215000CF93DF9300D000D0CDB7DEB769837A8309
:102160008B839C838091960190919701A091980117
:10217000B091990129813A814B815C81822393231B
:10218000A423B5238093960190939701A09398017F
:10219000B09399010F900F900F900F90DF91CF9116
:1021A0000C94BB0BCF93DF9300D000D0CDB7DEB73C
:1021B00069837A838B839C838091960190919701A8
:1021C000A0919801B091990129813A814B815C815C
:1021D00082279327A427B527809396019093970190
:1021E000A0939801B09399010F900F900F900F90CA
:1021F000DF91CF910C94BB0B0895E92FEE0FEE0FFA
:10220000E80F8E2F877041E001C0440F8A95EAF7EE
:10221000E695E695E69585E0E89FF0011124E45700
:10222000FE4F30E020E070E05191DF011197CB01CB
:10223000022E02C0969587950A94E2F781708195E7
:102240008527842385278C932F5F3F4F25303105C9
:1022500059F70895E92FEE0FEE0FE80F9E2F9770B4
:10226000E695E695E69585E0E89FF0011124E457B0
:10227000FE4F50E040E080E0219130E0092E02C0A6
:10228000369527950A94E2F721703327042E01C072
:10229000220F0A94EAF7822B4F5F5F4F45305105BA
:1022A00059F70895BF92CF92DF92EF92FF920F936A
:1022B0001F93CF93DF938C01C0909601D09097012C
:1022C000E0909801F090990180919A0190919B0182
:1022D000A0919C01B0919D01C82AD92AEA2AFB2A23
:1022E000CFE1D0E0BC2ED701C6010C2E04C0B695BC
:1022F000A795979587950A94D2F780FD0EC02197F0
:1023000088F7B12C8B2DDF91CF911F910F91FF900A
:10231000EF90DF90CF90BF900895B8018C2F0E946E
:10232000A203019761F3EECFCF93DF93D82FC92F8C
:102330000E9452116D2F7C2FDF91CF910C94A2033C
:102340001F93CF93DF93162FD72F9091530199238B
:1023500039F0862F972FDF91CF911F910C94941114
:10236000882391F0862F972F0E945211C82F682F33
:10237000812F9D2F0E94FD10612F7D2F8C2FDF91CB
:10238000CF911F910C94A203862F972F0E942A11A0
:10239000C82FF2CF80919E018595859585950895EA
:1023A00080919E018770089598E0899F9001112483
:1023B000622B60939E010C94151090919E01809564
:1023C000892380939E01282F277061F4282F082EDF
:1023D000000C330B9217130629F08595859585958A
:1023E0000C943710089590919E01977081E009F444
:1023F00080E00895909112019923E1F09091F40109
:1024000097FF18C0E82FE695E695E695EF3139F18C
:102410002091000130910101E20FF32FF11D87702F
:1024200021E030E001C0220F8A95EAF78181822BFA
:10243000818308952091000130910101F9013296C4
:102440009FEF40E05191851751F09F3F19F45111D2
:1024500001C0942F4F5F4E31A9F79F3F09F40895B3
:10246000290F311D97FD3A95F901828308959091C6
:102470001201992301F19091F40197FF1CC0E82FFC
:10248000E695E695E695EF3139F12091000130911E
:102490000101E20FF32FF11D877021E030E0A90167
:1024A00002C0440F551F8A95E2F7CA0180959181B9
:1024B0008923818308952091000130910101F90160
:1024C0003296205E3F4F9191891303C0DF0111972F
:1024D0001C92E217F307B9F7089581E090E0E091CC
:1024E0000001F0910101E80FF91F1082019680327E
:1024F0009105A9F708959091C201982B9093C2017C
:102500000895982F90958091C20189238093C201EC
:1025100008951092C20108959091C101982B909353
:10252000C1010895982F90958091C10189238093CE
:10253000C10108951092C10108959091C001982B96
:102540009093C0010895982F90958091C0018923A0
:102550008093C00108951092C001089580939F0157
:10256000089510929F01089520910001309101017A
:10257000F9013196205E3F4F80E0919191118F5F7C
:10258000E217F307D1F70895E0910001F0910101FE
:102590008091C2018083E0910001F091010180816E
:1025A0009091C101892B8083E0910001F09101019C
:1025B00080819091C001892B808390919F01992304
:1025C00061F0E0910001F09101018081892B80830D
:1025D0000E94B412811110929F018091000190918C
:1025E00001010C94F3066DEE7EEF90E080E00E9416
:1025F000622060E082E090E00E94502060E083E092
:1026000090E00E94502060E084E090E00E94502022
:1026100060E085E090E00C94502090E080E00E9423
:102620004A209C0181E02D3E3E4F09F080E0089554
:1026300082E090E00C944220682F82E090E00C94BD
:10264000502083E090E00C944220682F83E090E0DB
:102650000C94502084E090E00C944220682F84E099
:1026600090E00C9450208091FA01843039F110925E
:10267000C40188E190E020E40FB6F894A895809317
:1026800060000FBE2093600080E00E94830383B748
:10269000817F846083BF83B7816083BF789488958E
:1026A00083B78E7F83BF0FB6F894A89580916000A2
:1026B000886180936000109260000FBE08950895B5
:1026C0000895CF930E945F130E9432060E94601308
:1026D000C0E08C2F0E94DB06811105C0CF5FC330A4
:1026E000C1F7CF91089581E0FCCF0E94CF0B0E94EB
:1026F000E7060C9483031F921FB61F9211248F9339
:102700009F93AF93BF938091C401811113C08091B7
:10271000F0019091F101A091F201B091F301419685
:10272000A11DB11D8093F0019093F101A093F201DE
:10273000B093F301BF91AF919F918F911F901FBEF6
:102740001F90189582E084BD93E095BD9AEF97BDE8
:1027500080936E0008952FB7F8948091F0019091C6
:10276000F101A091F201B091F3012FBF0895CF9232
:10277000DF92EF92FF929C014FB7F8948091F001A5
:102780009091F101A091F201B091F3014FBF6C0162
:102790007D01EE24FF24A90170E060E0C416D50697
:1027A000E606F70638F0821B930BFF90EF90DF9060
:1027B000CF9008950197F7CF1F921FB61F92112453
:1027C0008F939F93AF93BF938091F0019091F1010C
:1027D000A091F201B091F3010196A11DB11D80936A
:1027E000F0019093F101A093F201B093F301BF9136
:1027F000AF919F918F911F901FBE1F9018950E94BF
:10280000EB1BF8942FEF87EA91E62150804090402F
:10281000E1F700C0000087E090EBDC018093030249
:1028200090930402A0930502B093060288E19CE015
:102830000FB6F894A895809360000FBE9093600047
:10284000FFCFCF92DF92EF92FF920F931F93CF9320
:10285000C0E0E82EF12C8C2F0E94DB0610E000E097
:10286000C82ED12CC601002E02C0959587950A94DA
:10287000E2F780FF11C0602F7C2F80E00E9486036A
:10288000E816F90649F481E0CF911F910F91FF906E
:10289000EF90DF90CF9008950F5F1F4F0430110528
:1028A00009F7CF5FC330B9F680E0EECFCF93C82FE2
:1028B0008CE20E942114882321F08C2FCF910C945C
:1028C000211480E0CF910895CF93DF9300D000D002
:1028D000CDB7DEB70E940D13811102C00E94F31222
:1028E00095E6998308C00E9432068FE39CE9019720
:1028F000F1F700C00000A981A150A983A111F3CF75
:1029000089E20E945614811110C18AE20E94561475
:1029100081110E94F31285E00E94561481110E94D9
:10292000FF130E9418138093C30187E00E9456147E
:10293000882371F08BE10E945614882309F4D1C0DA
:102940009091C301892F8D7F91FF82608093C30195
:102950008091C3010E941C130E942A1390E090935F
:10296000F5018093F40180EE0E945614882341F013
:102970009091F401892F8E7F90FF81608093F40104
:1029800089E30E945614882341F09091F401892F25
:102990008D7F91FF82608093F40182EE0E94561435
:1029A000882341F09091F401892F8B7F92FF8460FE
:1029B0008093F40186EE0E945614882341F0909192
:1029C000F401892F877F93FF88608093F40183EE61
:1029D0000E945614882341F09091F401892F8F7E34
:1029E00094FF80618093F40185E30E94561488234C
:1029F00041F09091F401892F8F7D95FF8062809343
:102A0000F40181E30E945614882341F09091F4016F
:102A1000892F8F7B96FF80648093F40181E10E946F
:102A20005614882341F09091F401892F97FB87F980
:102A300080588093F4018091F4010E942E1387E264
:102A40000E94561489838EE10E945614882319F03F
:102A5000B981B260B9838FE10E945614882319F0BE
:102A600029812460298380E20E945614882319F06A
:102A700039813860398381E20E945614882319F025
:102A800049814061498382E20E945614882319F0EB
:102A900059815062598383E20E945614882319F0A9
:102AA00089818064898384E20E9456148823B1F16D
:102AB00099819068998389810E9425133981232FF8
:102AC00030E050E040E029833A834B835C83CA01C5
:102AD000B9010F900F900F900F90DF91CF910C9450
:102AE0006E0F8EE00E945614882339F09091C30136
:102AF000892F8B7F92FF846029CF80E10E9456143A
:102B00009091C301882329F0892F877F93FF8860E4
:102B10001DCF892F8E7F90FF816018CFA981A111D1
:102B2000CACF0E942113282FCBCF0F900F900F9068
:102B30000F90DF91CF9108958091C70180FF12C05F
:102B40006091050185E0689FB00111247595679536
:102B50007595679560387105A8F561157105A1F146
:102B6000862F089581FF09C06091050185E0689F67
:102B7000B001112475956795EDCF6091050182FD37
:102B80000AC08091C8018823D1F09091040160911E
:102B90000501891728F085E0689FB0011124DACF7C
:102BA000869FB001112485E0869F9001879F300D9C
:102BB0001124692F70E0C9010E941420CBCF65E079
:102BC00070E0CECF8FE7089581E008958091C7012E
:102BD00080FF0CC06091030170E075956795759555
:102BE00067956115710549F1862F089581FF06C02B
:102BF0006091030170E075956795F3CF60910301D3
:102C000082FD0BC09091C8019923A1F0609102014F
:102C100080910301961738F0682F70E060387105D5
:102C200000F38FE70895899FC001112470E00E948E
:102C30001420F4CF61E070E0D7CF81E00895803FA9
:102C400031F40E949C1581958093CB010895813FBA
:102C500019F40E949C15F8CF823F31F40E949C1514
:102C600081958093CA010895833F19F40E949C15B1
:102C7000F8CF893F29F40E94E6158093CC0108958E
:102C80008A3F21F40E94E6158195F7CF8B3F31F4FE
:102C90000E94E61581958093CD0108958C3F19F42B
:102CA0000E94E615F8CF843F31F48091C90181601C
:102CB0008093C9010895853F21F48091C901826004
:102CC000F7CF863F21F48091C9018460F1CF873F1F
:102CD00021F48091C9018860EBCF883F21F4809175
:102CE000C9018061E5CF8D3F31F48091C7018160DA
:102CF0008093C70108958E3F21F48091C7018260BF
:102D0000F7CF8F3FB9F78091C7018460F1CF9091E1
:102D1000CA01803F41F48091CB0187FD1092CB0125
:102D2000992371F00895813F29F48091CB01181601
:102D3000ACF3F6CF823F81F497FFF2CF1092CA0135
:102D40008091CB019091CC01892B9091CD01892B61
:102D500049F71092C8010895833F19F4191674F3C6
:102D6000DFCF893F39F48091CC011816CCF6109250
:102D7000CC01D6CF8A3F29F48091CC0187FFD0CFF8
:102D8000F6CF8B3F39F48091CD0187FFC9CF1092E8
:102D9000CD01C6CF8C3F29F48091CD011816BCF32C
:102DA000BFCF843F31F48091C9018E7F8093C901E8
:102DB000B7CF853F21F48091C9018D7FF7CF863F42
:102DC00021F48091C9018B7FF1CF873F21F480915D
:102DD000C901877FEBCF883F21F48091C9018F7EA5
:102DE000E5CF8D3F31F48091C7018E7F8093C7017D
:102DF00097CF8E3F21F48091C7018D7FF7CF8F3F12
:102E000009F08ECF8091C7018B7FF0CF89EC91E0E4
:102E10000E94FE060E94AB139093C6018093C501E9
:102E200008951F93CF93DF9300D000D000D0CDB78B
:102E3000DEB78091C5019091C6010E94B713AC0125
:102E40008091C8012091060130E0811106C02091D7
:102E500007019AE0299F900111244217530788F037
:102E60002091CA01A091CB01A9831091CC01B0910E
:102E7000CD01BE8321110FC09A2F912B9B2B09F0FE
:102E8000B2C026960FB6F894DEBF0FBECDBFDF915D
:102E9000CF911F9108958F3F19F08F5F8093C801E4
:102EA000121624F40E949C158093CA018091CA01D5
:102EB00087FF05C00E949C1581958093CA012981D6
:102EC000121624F40E949C158093CB018091CB01B3
:102ED00087FF05C00E949C1581958093CB0180914E
:102EE000CA01882309F455C03091CB013D833323B7
:102EF00009F44FC0282F880F330B440B550B29833F
:102F00003A834B835C83CA01B9010E941B1F23E3F0
:102F100033E343E35FE369837A838B839C83698133
:102F20007A818B819C810E947F1F69837A838B8346
:102F30009C8369817A818B819C810E94E31E6093CE
:102F4000CA018D81082E000C990BAA0BBB0B89833B
:102F50009A83AB83BC83BC01CD010E941B1F23E37A
:102F600033E343E35FE369837A838B839C836981E3
:102F70007A818B819C810E947F1F69837A838B83F6
:102F80009C8369817A818B819C810E94E31E60937E
:102F9000CB01111624F40E94E6158093CC01809198
:102FA000CC0187FF05C00E94E61581958093CC0176
:102FB0009E81191624F40E94E6158093CD0180911C
:102FC000CD0187FF05C00E94E61581958093CD0154
:102FD00026960FB6F894DEBF0FBECDBFDF91CF911E
:102FE0001F910C9406178F3F09F057CF68CF85E0EB
:102FF000E9ECF1E0DF011D928A95E9F71092C80132
:103000001092C70108958091EE010895CF93DF9348
:1030100000D00F92CDB7DEB72091FA01243019F518
:1030200023E029838A839B832093E9008FEF90918B
:10303000E800815095FD06C095ED9A95F1F70000E6
:103040008111F5CF8091E80085FF0DC050E040E090
:1030500063E070E0CE0101960E94631A8091E8005F
:103060008E778093E8000F900F900F90DF91CF91B3
:103070000895CF93DF9300D00F92CDB7DEB79C01B8
:103080008091FA01843031F582E08983205831093A
:103090003B832A8383E08093E9008FEF9091E800DF
:1030A000815095FD06C095ED9A95F1F700008111CC
:1030B000F5CF8091E80085FF0DC050E040E063E06F
:1030C00070E0CE0101960E94631A8091E8008E772D
:1030D0008093E8000F900F900F90DF91CF910895AB
:1030E0002091FA012430F1F422E02093E9002FEF3F
:1030F0003091E800215035FD06C035ED3A95F1F7E5
:1031000000002111F5CF2091E80025FF0BC050E011
:1031100040E065E070E00E94631A8091E8008E77DD
:103120008093E8000895CF93DF93D82FC92F809123
:10313000FA018430F1F4909112019923E9F0909111
:10314000F40197FF19C08093E9008FEF9091E80098
:10315000815095FD06C095E19A95F1F70000811127
:10316000F5CF8091E80050E040E060E270E085FD3E
:103170001AC0DF91CF91089581E08093E9008FEF2D
:103180009091E800815095FD06C095ED9A95F1F774
:1031900000008111F5CF8091E80085FFEACF50E073
:1031A00040E068E070E08D2F9C2F0E94631A8091B0
:1031B000E8008E778093E80080E2ED2FFC2FAEECE4
:1031C000B1E001900D928A95E1F7D3CF8091F9019A
:1031D000811109C00E94EB1B0E94481C8091E200F3
:1031E00084608093E20008951092F9010895089593
:1031F00008950C94751342E061EC81E00E94671B16
:1032000042E061EC82E00E94671B42E061EC83E0F7
:103210000E94671B42E261EC84E00C94671B809182
:10322000FC01893089F148F4823009F494C083307C
:1032300009F44FC0813041F008958A3009F47BC011
:103240008B3009F461C008958091FB01813A09F047
:103250003FC08091E800877F8093E8008091FF0164
:1032600090910002892B61F460E28EEC91E070E0B5
:103270000E94B21A8091E8008B778093E80008954D
:1032800060E090E080E0F3CF8091FB01813201F5B6
:103290008091FF0190910002009711F00397C1F413
:1032A0008091E800877F8093E8008091E80082FFAA
:1032B0000BC08091F1008093EE018091E8008B7744
:1032C0008093E8000C949B1B8091FA018111EDCF53
:1032D00008958091FB01813AD9F78091FF01909187
:1032E0000002892BA9F78091E800877F8093E8008E
:1032F0008091E80080FFFCCF809112018093F10063
:103300008091E8008E77DCCF8091FB01813201F75C
:103310008091FF0190910002892BD1F68091E80005
:10332000877F8093E8000E949B1B8091FD01809322
:1033300012010C94CF0B8091FB01813249F68091F0
:10334000E800877F8093E8000E949B1B8091FE012C
:103350008093EF0108958091FB01813A09F0B8CF85
:103360008091E800877F8093E8008091E80080FFEB
:10337000FCCF8091EF01C2CF84B7877F84BF0FB6A7
:10338000F894A89580916000886180936000109205
:1033900060000FBE80E880936100109261000E947F
:1033A00036070E94EB1B0E94481C8091E20084605B
:1033B0008093E20078940E94C81E0E94380788E03B
:1033C00091E00E94E2068091FA01853019F00E9496
:1033D0003E07F9CF0E9433138091F801882399F3B7
:1033E0000E946113882379F30E944D1AECCF9C014F
:1033F000DA01892F992783309105C1F068F4813073
:10340000910509F445C0029761F48DE690E02CE542
:1034100032E02D933C93089581329105E1F082973B
:1034200039F190E080E030E020E0F3CFC901992746
:10343000213059F08230910559F0E8E5F2E0892B0E
:1034400081F7849190E09F01E4CFE0E4F2E0F9CFCE
:10345000ECE2F2E0F6CF643020F7E62FF0E0EE0F7A
:10346000FF1FEA5DFE4F2081318189E090E0D1CFDE
:103470006430B8F670E0FB01EE0FFF1FE25EFE4F16
:1034800020813181665E7E4FFB01808190E0C1CF5B
:1034900082E190E029EC32E0BCCF80E189BD82E19D
:1034A00089BD09B400FEFDCF8091D8008F7D809347
:1034B000D8008091E00082608093E0008091E0007D
:1034C00081FDFCCF0895AF92BF92CF92DF92FF9221
:1034D0000F931F93CF93DF936C01EB018A010E943E
:1034E000BA1BF82E811123C00115110539F0F8011E
:1034F00080819181C81BD90BC80ED91EB12CA12C7B
:103500002097A9F08091E80085FD22C08091E80015
:103510008E778093E80001151105A1F0F8018081F4
:103520009181A80EB91EB182A08285E0F82E8F2D60
:10353000DF91CF911F910F91FF90DF90CF90BF90BF
:10354000AF9008950E94BA1B8823D1F2F82EEFCFD6
:10355000F60181916F018093F1002197FFEFAF1A7F
:10356000BF0ACECFFC01CB012091010230910202B3
:103570002617370790F0009729F42091E8002E775E
:103580002093E80040E0009751F4411108C0809179
:10359000E80082FF31C080E00895C901F3CF209197
:1035A000FA012223A9F12530A9F12091E80023FD99
:1035B0002DC02091E80022FDEACF2091E80020FFF5
:1035C000E2CF3091F3002091F200009719F02830FB
:1035D000310558F041E02830310509F040E02091F4
:1035E000E8002E772093E800CECF41914093F10080
:1035F00001972F5F3F4FE9CF8091FA01882341F077
:10360000853041F08091E80083FFC1CF81E00895CB
:1036100082E0089583E00895FC01CB01209101022E
:10362000309102022617370790F0009729F4209175
:10363000E8002E772093E80040E0009751F4411114
:1036400008C08091E80082FF32C080E00895C9017F
:10365000F3CF2091FA012223B1F12530B1F120916D
:10366000E80023FD2EC02091E80022FDEACF209142
:10367000E80020FFE2CF3091F3002091F2000097A4
:1036800019F02830310558F041E02830310509F0B3
:1036900040E02091E8002E772093E800CECF4491BF
:1036A0004093F100319601972F5F3F4FE8CF809113
:1036B000FA01882341F0853041F08091E80083FFD2
:1036C000C0CF81E0089582E0089583E00895982FA7
:1036D000973028F08F708093E90081E008959093EF
:1036E000E900242F762F50E0981731F07091EC000C
:1036F0002091ED005091F00021FD02C09F5FE8CFC6
:103700003091EB003E7F3093EB003091ED003D7F38
:103710003093ED003091EB0031603093EB0070930B
:10372000EC002093ED005093F0002091EE0027FD77
:10373000E5CF80E008958091FB0187FF13C0809161
:10374000E80082FF06C08091E8008B778093E80054
:1037500004C08091FA018111F2CF08958091FA019D
:103760008823D9F38091E80080FFF8CF8091E800AA
:103770008E77ECCF2091E4003091E50095E6A90129
:103780002091EC00822F817020FF06C08091E8001C
:1037900080FF06C080E008952091E80022FD1AC055
:1037A0008091FA01882389F0853089F08091EB00BF
:1037B00085FD0FC02091E4003091E50042175307CA
:1037C000F9F29150E1F684E0089582E0089583E0F3
:1037D000089581E008950E94591C0E94611CE0EE4A
:1037E000F0E0808181608083E8EDF0E080818F7778
:1037F000808319BCA7EDB0E08C918E7F8C93808183
:103800008F7E80831092F90108950F931F93CF93B9
:10381000DF930E94591C0E94611CC8EDD0E0888192
:103820008F77888388818068888388818F7D88836B
:1038300019BC1092FA011092F6011092F801109240
:10384000F70100EE10E0F80180818B7F8083888192
:103850008160888342E060E080E00E94671BE1EEC7
:10386000F0E080818E7F8083E2EEF0E080818160F5
:103870008083808188608083F80180818E7F80834F
:10388000888180618883DF91CF911F910F91089586
:10389000E8EDF0E080818F7E8083E7EDF0E08081CD
:1038A0008160808384E082BF81E08093F9010C9481
:1038B000051CE8EDF0E080818E7F80831092E200AD
:1038C00008951092DA001092E10008951F920F926D
:1038D0000FB60F9211242F933F934F935F936F93E3
:1038E0007F938F939F93AF93BF93EF93FF938091B9
:1038F000E10082FF0BC08091E20082FF07C080914F
:10390000E1008B7F8093E1000E94C71E8091DA0066
:1039100080FF19C08091D80080FF15C08091DA0027
:103920008E7F8093DA008091D90080FF94C080E17F
:1039300089BD82E189BD09B400FEFDCF81E080939D
:10394000FA010E94E6188091E10080FF19C0809181
:10395000E20080FF15C08091E2008E7F8093E2003C
:103960008091E20080618093E2008091D8008062C3
:103970008093D80019BC85E08093FA010E94F81862
:103980008091E10084FF29C08091E20084FF25C07E
:1039900080E189BD82E189BD09B400FEFDCF80913F
:1039A000D8008F7D8093D8008091E1008F7E809336
:1039B000E1008091E2008F7E8093E2008091E2003E
:1039C00081608093E2008091F601882309F449C068
:1039D00084E08093FA010E94F9188091E10083FF4E
:1039E00029C08091E20083FF25C08091E100877F9C
:1039F0008093E10082E08093FA011092F6018091B9
:103A0000E1008E7F8093E1008091E2008E7F8093C1
:103A1000E2008091E20080618093E20042E060E099
:103A200080E00E94671B8091F00088608093F00026
:103A30000E94F718FF91EF91BF91AF919F918F91E5
:103A40007F916F915F914F913F912F910F900FBE9A
:103A50000F901F90189519BC1092FA010E94F4184B
:103A600072CF8091E30087FD02C081E0B2CF83E096
:103A7000B0CF1F920F920FB60F9211242F933F9346
:103A80004F935F936F937F938F939F93AF93BF9366
:103A9000CF93DF93EF93FF93D091E900DF70809194
:103AA000EC00C82FC17080FDC0E81092E900809141
:103AB000F000877F8093F00078940E947D1D109223
:103AC000E9008091F00088608093F000CD2BCF70EA
:103AD000C093E900FF91EF91DF91CF91BF91AF913A
:103AE0009F918F917F916F915F914F913F912F9116
:103AF0000F900FBE0F901F9018951F93CF93DF93D9
:103B0000CDB7DEB7AA970FB6F894DEBF0FBECDBF14
:103B10008BEF91E0FC0101962091F100208322E0DF
:103B200083309207B9F70E940F198091E80083FF54
:103B300016C18091FB019091FC019A3008F00FC1F1
:103B4000E92FF0E0E456FF4D0C942820803881F0F6
:103B5000823809F004C18091FF018F708093E900E1
:103B60008091EB0085FB882780F91092E90006C060
:103B70008091F7019091F801911182609091E80095
:103B8000977F9093E8008093F1001092F10080916C
:103B9000E8008E77E0C0882309F4CEC0823009F0B7
:103BA000DEC08091FD018111D1C08091FF018F7035
:103BB00009F4D5C08093E9002091EB0020FFC6C036
:103BC000933031F48091EB0080628093EB00BEC0B3
:103BD0009091EB0090619093EB0021E030E001C008
:103BE000220F8A95EAF72093EA001092EA0080916A
:103BF000EB008860EACF8111B2C01091FD011F7700
:103C00008091E3008078812B8093E3008091E8002D
:103C1000877F8093E8000E949B1B8091E80080FFD3
:103C2000FCCF8091E30080688093E30082E0111173
:103C300083E08093FA0193C08058823008F08FC0EF
:103C40008091FD019091FE018C3D23E09207A1F54A
:103C500083E08A838AE289834FB7F894DE01139662
:103C600020E03EE051E2E32FF0E050935700E49172
:103C700020FF03C0E295EF703F5FEF708E2F90E062
:103C8000EA30C0F0C7968D939D932F5F243159F78A
:103C90004FBF8091E800877F8093E8006AE270E080
:103CA000CE0101960E94B21A8091E8008B77809332
:103CB000E80055C0C096E7CFAE014F5F5F4F6091FF
:103CC000FF010E94F719BC01892B09F448C08091BB
:103CD000E800877F8093E80089819A810E940C1B0D
:103CE000E3CF8038E1F58091E800877F8093E8009A
:103CF0008091F6018093F1004ACF811130C09091FC
:103D0000FD01923060F58091E800877F8093E800A4
:103D10009093F6010E949B1B8091F601882311F07D
:103D200084E005C08091E30087FDFACF81E08093B5
:103D3000FA010E94FB1813C08091FD01813079F4D3
:103D400081E0933009F080E08093F8011092E9005F
:103D50008091E800877F8093E8000E949B1B809100
:103D6000E80083FF0AC08091E800877F8093E80025
:103D70008091EB0080628093EB00AA960FB6F894D6
:103D8000DEBF0FBECDBFDF91CF911F910895089583
:103D9000CF938091FA018823A1F0C091E900CF7000
:103DA0009091EC00892F817090FD80E8C82B1092D3
:103DB000E9008091E80083FD0E947D1DCF70C093D3
:103DC000E900CF9108950E94EA1E6894B1110C9405
:103DD000791F08950E945E1F88F09F5798F0B92FB1
:103DE0009927B751B0F0E1F0660F771F881F991F30
:103DF0001AF0BA95C9F714C0B13091F00E94781F3B
:103E0000B1E008950C94781F672F782F8827B85F4A
:103E100039F0B93FCCF3869577956795B395D9F787
:103E20003EF490958095709561957F4F8F4F9F4F91
:103E30000895E89409C097FB3EF49095809570959D
:103E400061957F4F8F4F9F4F9923A9F0F92F96E9E6
:103E5000BB279395F695879577956795B795F1115B
:103E6000F8CFFAF4BB0F11F460FF1BC06F5F7F4FF8
:103E70008F4F9F4F16C0882311F096E911C077230A
:103E800021F09EE8872F762F05C0662371F096E813
:103E9000862F70E060E02AF09A95660F771F881FE2
:103EA000DAF7880F9695879597F9089557FD9058FA
:103EB000440F551F59F05F3F71F04795880F97FBEE
:103EC000991F61F09F3F79F08795089512161306A8
:103ED0001406551FF2CF4695F1DF08C016161706D7
:103EE0001806991FF1CF869571056105089408950C
:103EF000E894BB2766277727CB0197F908950E949E
:103F0000921F0C9403200E94F51F38F00E94FC1FA2
:103F100020F0952311F00C94EC1F0C94F21F112447
:103F20000C94791F0E94561F70F3959FC1F3950F53
:103F300050E0551F629FF001729FBB27F00DB11D2D
:103F4000639FAA27F00DB11DAA1F649F6627B00DBD
:103F5000A11D661F829F2227B00DA11D621F739FA6
:103F6000B00DA11D621F839FA00D611D221F749FB4
:103F70003327A00D611D231F849F600D211D822FFB
:103F8000762F6A2F11249F5750409AF0F1F0882322
:103F90004AF0EE0FFF1FBB1F661F771F881F91504F
:103FA0005040A9F79E3F510580F00C94EC1F0C94F3
:103FB000791F5F3FE4F3983ED4F386957795679534
:103FC000B795F795E7959F5FC1F7FE2B880F911D79
:103FD0009695879597F9089597F99F6780E870E01F
:103FE00060E008959FEF80EC089500240A9416166F
:103FF000170618060906089500240A9412161306D7
:10400000140605060895092E0394000C11F4882364
:1040100052F0BB0F40F4BF2B11F460FF04C06F5F80
:104020007F4F8F4F9F4F089597FB072E16F40094F4
:1040300007D077FD09D00E942E2007FC05D03EF462
:10404000909581959F4F0895709561957F4F089544
:10405000EE0FFF1F0590F491E02D0994AA1BBB1BE6
:1040600051E107C0AA1FBB1FA617B70710F0A61B78
:10407000B70B881F991F5A95A9F780959095BC0199
:10408000CD010895F999FECF92BD81BDF89A992787
:1040900080B50895A8E1B0E042E050E00C946A20B9
:1040A000262FF999FECF92BD81BDF89A019700B4F1
:1040B000021639F01FBA20BD0FB6F894FA9AF99A91
:1040C0000FBE08950196272F0E9451200C94502076
:1040D000DC01CB01FC01F999FECF06C0F2BDE1BDC8
:1040E000F89A319600B40D9241505040B8F70895B7
:1040F000F894FFCFEE02FA02FE02020306030A035F
:104100000E03120316031A031E03220326032A03B7
:104110002E03320336033A037A097A09D209D20907
:10412000160A320AAA09AA093D0AAA09050B050BB3
:10413000700BAA09AA09790BA61DCB1DAF1ECB1DBA
:0C414000AF1EFB1D1C1EAF1E711E7D1E5D
:10414C00A0012808140A321E031893187018391885
:10415C00061801F4F5F6F7919094404D3639970313
:0E416C004A031403DB026E028702A002B902AE
:00000001FF
